{
  "contractName": "Documents",
  "abi": [
    {
      "constant": true,
      "inputs": [],
      "name": "licenseCount",
      "outputs": [
        {
          "internalType": "uint256",
          "name": "",
          "type": "uint256"
        }
      ],
      "payable": false,
      "stateMutability": "view",
      "type": "function"
    },
    {
      "constant": true,
      "inputs": [
        {
          "internalType": "uint256",
          "name": "",
          "type": "uint256"
        }
      ],
      "name": "licenses",
      "outputs": [
        {
          "internalType": "uint256",
          "name": "index",
          "type": "uint256"
        },
        {
          "internalType": "string",
          "name": "firstName",
          "type": "string"
        },
        {
          "internalType": "string",
          "name": "lastName",
          "type": "string"
        },
        {
          "internalType": "uint256",
          "name": "dateOfBirth",
          "type": "uint256"
        },
        {
          "internalType": "string",
          "name": "docIdNumber",
          "type": "string"
        },
        {
          "internalType": "uint256",
          "name": "issueDate",
          "type": "uint256"
        },
        {
          "internalType": "uint256",
          "name": "expiryDate",
          "type": "uint256"
        },
        {
          "internalType": "string",
          "name": "issuingAuthority",
          "type": "string"
        }
      ],
      "payable": false,
      "stateMutability": "view",
      "type": "function"
    },
    {
      "constant": true,
      "inputs": [],
      "name": "passCount",
      "outputs": [
        {
          "internalType": "uint256",
          "name": "",
          "type": "uint256"
        }
      ],
      "payable": false,
      "stateMutability": "view",
      "type": "function"
    },
    {
      "constant": true,
      "inputs": [
        {
          "internalType": "uint256",
          "name": "",
          "type": "uint256"
        }
      ],
      "name": "passports",
      "outputs": [
        {
          "internalType": "uint256",
          "name": "passIndex",
          "type": "uint256"
        },
        {
          "internalType": "string",
          "name": "firstName",
          "type": "string"
        },
        {
          "internalType": "string",
          "name": "lastName",
          "type": "string"
        },
        {
          "internalType": "uint256",
          "name": "dateOfBirth",
          "type": "uint256"
        },
        {
          "internalType": "string",
          "name": "docIdNumber",
          "type": "string"
        },
        {
          "internalType": "uint256",
          "name": "issueDate",
          "type": "uint256"
        },
        {
          "internalType": "uint256",
          "name": "expiryDate",
          "type": "uint256"
        },
        {
          "internalType": "string",
          "name": "issuingAuthority",
          "type": "string"
        }
      ],
      "payable": false,
      "stateMutability": "view",
      "type": "function"
    },
    {
      "constant": false,
      "inputs": [
        {
          "internalType": "uint256",
          "name": "_i",
          "type": "uint256"
        },
        {
          "internalType": "string",
          "name": "_firstName",
          "type": "string"
        },
        {
          "internalType": "string",
          "name": "_lastName",
          "type": "string"
        },
        {
          "internalType": "uint256",
          "name": "_dateOfBirth",
          "type": "uint256"
        },
        {
          "internalType": "string",
          "name": "_docIdNumber",
          "type": "string"
        },
        {
          "internalType": "uint256",
          "name": "_issueDate",
          "type": "uint256"
        },
        {
          "internalType": "uint256",
          "name": "_expiryDate",
          "type": "uint256"
        },
        {
          "internalType": "string",
          "name": "_issuingAuthority",
          "type": "string"
        }
      ],
      "name": "createNewLicense",
      "outputs": [],
      "payable": false,
      "stateMutability": "nonpayable",
      "type": "function"
    },
    {
      "constant": false,
      "inputs": [
        {
          "internalType": "uint256",
          "name": "_i",
          "type": "uint256"
        },
        {
          "internalType": "string",
          "name": "_firstName",
          "type": "string"
        },
        {
          "internalType": "string",
          "name": "_lastName",
          "type": "string"
        },
        {
          "internalType": "uint256",
          "name": "_dateOfBirth",
          "type": "uint256"
        },
        {
          "internalType": "string",
          "name": "_docIdNumber",
          "type": "string"
        },
        {
          "internalType": "uint256",
          "name": "_issueDate",
          "type": "uint256"
        },
        {
          "internalType": "uint256",
          "name": "_expiryDate",
          "type": "uint256"
        },
        {
          "internalType": "string",
          "name": "_issuingAuthority",
          "type": "string"
        }
      ],
      "name": "createNewPass",
      "outputs": [],
      "payable": false,
      "stateMutability": "nonpayable",
      "type": "function"
    },
    {
      "constant": false,
      "inputs": [
        {
          "internalType": "uint256",
          "name": "_id",
          "type": "uint256"
        }
      ],
      "name": "deleteLicense",
      "outputs": [],
      "payable": false,
      "stateMutability": "nonpayable",
      "type": "function"
    },
    {
      "constant": false,
      "inputs": [
        {
          "internalType": "uint256",
          "name": "_id",
          "type": "uint256"
        }
      ],
      "name": "deletePassport",
      "outputs": [],
      "payable": false,
      "stateMutability": "nonpayable",
      "type": "function"
    }
  ],
  "bytecode": "0x608060405260008055600060015534801561001957600080fd5b50610dfd806100296000396000f3fe608060405234801561001057600080fd5b50600436106100885760003560e01c806356838d5c1161005b57806356838d5c146104f85780638377dfd414610515578063cb22f5fd1461051d578063f8ade6f81461053a57610088565b80631575c4251461008d5780632fbccc27146100ac57806333790845146100c65780634883d89b146102a9575b600080fd5b6100aa600480360360208110156100a357600080fd5b5035610789565b005b6100b461080c565b60408051918252519081900360200190f35b6100e3600480360360208110156100dc57600080fd5b5035610812565b604051808981526020018060200180602001888152602001806020018781526020018681526020018060200185810385528c818151815260200191508051906020019080838360005b8381101561014457818101518382015260200161012c565b50505050905090810190601f1680156101715780820380516001836020036101000a031916815260200191505b5085810384528b5181528b516020918201918d019080838360005b838110156101a457818101518382015260200161018c565b50505050905090810190601f1680156101d15780820380516001836020036101000a031916815260200191505b5085810383528951815289516020918201918b019080838360005b838110156102045781810151838201526020016101ec565b50505050905090810190601f1680156102315780820380516001836020036101000a031916815260200191505b50858103825286518152865160209182019188019080838360005b8381101561026457818101518382015260200161024c565b50505050905090810190601f1680156102915780820380516001836020036101000a031916815260200191505b509c5050505050505050505050505060405180910390f35b6100aa60048036036101008110156102c057600080fd5b81359190810190604081016020820135600160201b8111156102e157600080fd5b8201836020820111156102f357600080fd5b803590602001918460018302840111600160201b8311171561031457600080fd5b91908080601f0160208091040260200160405190810160405280939291908181526020018383808284376000920191909152509295949360208101935035915050600160201b81111561036657600080fd5b82018360208201111561037857600080fd5b803590602001918460018302840111600160201b8311171561039957600080fd5b91908080601f01602080910402602001604051908101604052809392919081815260200183838082843760009201919091525092958435959094909350604081019250602001359050600160201b8111156103f357600080fd5b82018360208201111561040557600080fd5b803590602001918460018302840111600160201b8311171561042657600080fd5b91908080601f0160208091040260200160405190810160405280939291908181526020018383808284376000920191909152509295843595602086013595919450925060608101915060400135600160201b81111561048457600080fd5b82018360208201111561049657600080fd5b803590602001918460018302840111600160201b831117156104b757600080fd5b91908080601f016020809104026020016040519081016040528093929190818152602001838380828437600092019190915250929550610a8a945050505050565b6100aa6004803603602081101561050e57600080fd5b5035610b7b565b6100b4610bfe565b6100e36004803603602081101561053357600080fd5b5035610c04565b6100aa600480360361010081101561055157600080fd5b81359190810190604081016020820135600160201b81111561057257600080fd5b82018360208201111561058457600080fd5b803590602001918460018302840111600160201b831117156105a557600080fd5b91908080601f0160208091040260200160405190810160405280939291908181526020018383808284376000920191909152509295949360208101935035915050600160201b8111156105f757600080fd5b82018360208201111561060957600080fd5b803590602001918460018302840111600160201b8311171561062a57600080fd5b91908080601f01602080910402602001604051908101604052809392919081815260200183838082843760009201919091525092958435959094909350604081019250602001359050600160201b81111561068457600080fd5b82018360208201111561069657600080fd5b803590602001918460018302840111600160201b831117156106b757600080fd5b91908080601f0160208091040260200160405190810160405280939291908181526020018383808284376000920191909152509295843595602086013595919450925060608101915060400135600160201b81111561071557600080fd5b82018360208201111561072757600080fd5b803590602001918460018302840111600160201b8311171561074857600080fd5b91908080601f016020809104026020016040519081016040528093929190818152602001838380828437600092019190915250929550610c76945050505050565b6000818152600360205260408120818155906107a86001830182610ce6565b6107b6600283016000610ce6565b60038201600090556004820160006107ce9190610ce6565b600582016000905560068201600090556007820160006107ee9190610ce6565b50506001805460001901815560009182526003602052604090912055565b60005481565b60026020818152600092835260409283902080546001808301805487519281161561010002600019011695909504601f81018590048502820185019096528581529094919390929091908301828280156108ad5780601f10610882576101008083540402835291602001916108ad565b820191906000526020600020905b81548152906001019060200180831161089057829003601f168201915b50505060028085018054604080516020601f600019610100600187161502019094169590950492830185900485028101850190915281815295969594509092509083018282801561093f5780601f106109145761010080835404028352916020019161093f565b820191906000526020600020905b81548152906001019060200180831161092257829003601f168201915b50505050600383015460048401805460408051602060026001851615610100026000190190941693909304601f810184900484028201840190925281815295969395939450908301828280156109d65780601f106109ab576101008083540402835291602001916109d6565b820191906000526020600020905b8154815290600101906020018083116109b957829003601f168201915b505050505090806005015490806006015490806007018054600181600116156101000203166002900480601f016020809104026020016040519081016040528092919081815260200182805460018160011615610100020316600290048015610a805780601f10610a5557610100808354040283529160200191610a80565b820191906000526020600020905b815481529060010190602001808311610a6357829003601f168201915b5050505050905088565b60008054600190810180835560408051610100810182528c815260208082018d81528284018d9052606083018c9052608083018b905260a083018a905260c0830189905260e08301889052938652600281529190942084518155915180519293610afc93908501929190910190610d2d565b5060408201518051610b18916002840191602090910190610d2d565b506060820151600382015560808201518051610b3e916004840191602090910190610d2d565b5060a0820151600582015560c0820151600682015560e08201518051610b6e916007840191602090910190610d2d565b5050505050505050505050565b600081815260026020526040812081815590610b9a6001830182610ce6565b610ba8600283016000610ce6565b6003820160009055600482016000610bc09190610ce6565b60058201600090556006820160009055600782016000610be09190610ce6565b50506000805460001901815590815260026020526040902060019055565b60015481565b6003602090815260009182526040918290208054600180830180548651600293821615610100026000190190911692909204601f8101869004860283018601909652858252919492939092908301828280156108ad5780601f10610882576101008083540402835291602001916108ad565b60018054810180825560408051610100810182528b815260208082018c81528284018c9052606083018b9052608083018a905260a0830189905260c0830188905260e0830187905260009485526003825292909320815181559151805191949293610afc93850192910190610d2d565b50805460018160011615610100020316600290046000825580601f10610d0c5750610d2a565b601f016020900490600052602060002090810190610d2a9190610dab565b50565b828054600181600116156101000203166002900490600052602060002090601f016020900481019282601f10610d6e57805160ff1916838001178555610d9b565b82800160010185558215610d9b579182015b82811115610d9b578251825591602001919060010190610d80565b50610da7929150610dab565b5090565b610dc591905b80821115610da75760008155600101610db1565b9056fea265627a7a72315820393c68b1ac1bc7cd6a0cf0756010b9a17ccb397a22ea91c3a9234bab5dd7d66364736f6c634300050c0032",
  "source": "pragma solidity ^0.5.0;\r\n\r\ncontract Documents { \r\n\tuint public licenseCount = 0; //state variable to keep count of licenses\r\n\tuint public passCount = 0;\r\n\t\r\n\tstruct LicenseDetails { //struct of info relating to data found in a license\r\n\t\tuint index;\r\n\t\tstring firstName;\r\n\t\tstring lastName;\r\n\t\tuint dateOfBirth;\r\n\t\tstring docIdNumber;\r\n\t\tuint issueDate;\r\n\t\tuint expiryDate;\r\n\t\tstring issuingAuthority;\r\n\t}\r\n\t\r\n\tstruct PassDetails { \r\n\t\tuint passIndex;\r\n\t\tstring firstName;\r\n\t\tstring lastName;\r\n\t\tuint dateOfBirth;\r\n\t\tstring docIdNumber;\r\n\t\tuint issueDate;\r\n\t\tuint expiryDate;\r\n\t\tstring issuingAuthority;\r\n\t}\r\n\t\r\n\t\r\n\t//store data on the blockchain using mapping (similar to hashing)\r\n\tmapping(uint => LicenseDetails) public licenses;\r\n\t/*Design note: currently there can only exist 1 license and 1 passport on the blockchain. However it is stored using mapping\r\n    as a person may have more than 1 license (English and Swedish driving licenses for example) and more than 1 passport. That \r\n\tis why they are stored in such a manner, to allow for easier adjusment in the future.*/\r\n\tmapping(uint => PassDetails) public passports;\r\n\t\r\n\t\r\n\tfunction createNewLicense(uint _i, string memory _firstName, string memory _lastName, uint _dateOfBirth, string memory _docIdNumber, uint _issueDate, uint _expiryDate, string memory _issuingAuthority) public {\r\n\t\tlicenseCount ++;\r\n\t\tlicenses[licenseCount] = LicenseDetails(_i, _firstName, _lastName, _dateOfBirth, _docIdNumber, _issueDate, _expiryDate, _issuingAuthority);\r\n\t}\r\n\t\r\n\tfunction createNewPass(uint _i, string memory _firstName, string memory _lastName, uint _dateOfBirth, string memory _docIdNumber, uint _issueDate, uint _expiryDate, string memory _issuingAuthority) public \r\n\t{\r\n\t\tpassCount++;\r\n\t    passports[passCount] = PassDetails(_i, _firstName, _lastName, _dateOfBirth, _docIdNumber, _issueDate, _expiryDate, _issuingAuthority);\r\n\t}\r\n\t\r\n\t\r\n\tfunction deleteLicense(uint _id) public {\r\n\t\tdelete licenses[_id]; //must find workaround as this does not resize array but instead deletes element and converts to 0 bytes\r\n\t\t//example: was = {aram, albaradie, 123456, 92} | after delete = {aram, albaradie, 0, 92}\r\n\t\t\r\n\t\tlicenseCount--; //Controls the number of licenses after deletion, can be removed after support for multiple licenses is introduced\r\n\t\tlicenses[_id].index = 1; /*This is necessary as deletion in Solidity does not nullify element but instead sets it to 0 which causes an error\r\n\t\twhen trying to locate license information using index*/\r\n\t}\r\n\t\r\n\tfunction deletePassport(uint _id) public {\r\n\t\tdelete passports[_id]; \r\n\t\tpassCount--;\r\n\t\tpassports[_id].passIndex = 1;\r\n\t}\r\n\t\r\n\t//add function to allow owner to view all their available documents and choose one to display contents -----------------------------\r\n}\r\n\r\n//Add more documents such as diploma, id card etc",
  "sourcePath": "C:/Users/im_ar/OneDrive/Desktop/Project/New folder/contracts/documents.sol",
  "compiler": {
    "name": "solc",
    "version": "0.5.12+commit.7709ece9.Emscripten.clang"
  },
  "schemaVersion": "3.0.20",
  "updatedAt": "2020-04-24T16:16:45.144Z",
  "devdoc": {
    "methods": {}
  },
  "userdoc": {
    "methods": {}
  }
}